:020000040000FA
:1000000030590020F5040000FD040000FF0400004A
:1000100001050000030500000505000000000000C8
:10002000000000000000000000000000B10200001D
:1000300009050000000000000D0300000327000078
:100040000F05000011050000130500001505000054
:1000500017050000190500001B0500001D05000024
:100060001F050000210500002305000025050000F4
:1000700027050000290500002B0500002D050000C4
:100080002F05000031050000330500003505000094
:1000900037050000390500003B0500003D05000064
:1000A0003F05000041050000430500004505000034
:1000B00047050000490500004B0500004D05000004
:1000C0004F050000510500005305000055050000D4
:1000D00057050000590500005B0500005D050000A4
:1000E0005F050000610500000000000063050000DE
:1000F0006505000067050000690500006B0500004C
:100100006D0500006F05000071050000730500001B
:1001100000000000000000007505000077050000E9
:10012000790500007B0500007D0500007F050000CB
:10013000810500008305000085050000870500009B
:1001400000000000000000000000000000000000AF
:10015000890500008B0500008D0500008F0500005B
:10016000000000000000000000000000000000008F
:10017000000000000000000000000000000000007F
:10018000000000000000000000000000000000006F
:10019000000000000000000000000000000000005F
:1001A000000000000000000000000000000000004F
:1001B00091050000930500009505000097050000DB
:1001C000990500009B0500009D0500009F050000AB
:1001D000A1050000A3050000A5050000A70500007B
:1001E000A9050000AB050000AD05000000000000FF
:1001F00000000000AF050000B1050000B3050000DD
:10020000B5050000B7050000000000000000000078
:10021000B9050000BB050000BD050000BF050000DA
:10022000C1050000C3050000C5050000C7050000AA
:10023000C9050000CB050000CD050000CF0500007A
:10024000D1050000D3050000D5050000D70500004A
:10025000D9050000DB050000DD050000DF0500001A
:10026000E1050000E3050000E5050000DFF80CD023
:1002700006F054FB0048004773030000305900208B
:10028000EFF3108072B67047EFF310807047EFF312
:10029000108062B6704730BF704780F31188704796
:1002A000EFF31180704700000138FDD17047000066
:1002B0002C4B19680868B0E8F04F80F30988BFF349
:1002C0006F8F4FF0000080F311887047000000002E
:1002D00008480068006880F308884FF0000080F349
:1002E000148862B661B6BFF34F8FBFF36F8F00DF24
:1002F00000BF00BF08ED00E0DFF80C00016841F42A
:1003000070010160704700BF88ED00E0EFF30980E5
:10031000BFF36F8F134B1A681EF0100F08BF20ED4C
:10032000108A20E9F04F106009B44FF0A00080F36C
:100330001188BFF34F8FBFF36F8F04F0FEF84FF0BB
:10034000000080F3118809BC19680868B0E8F04F14
:100350001EF0100F08BFB0EC108A80F30988BFF3BD
:100360006F8F70473C000020EFF30580704700005E
:1003700070471CB500F00EFC00220121142002F091
:1003800051FB3349086000220C21142002F04AFB83
:1003900030490860002204212F4800F0A6FE002208
:1003A00008212D4800F0A1FE002001210346F02283
:1003B000CDE9001029A12E4803F052FC00200121B4
:1003C0000346F022CDE900102AA12F4803F048FC93
:1003D000002001210346F022CDE900102BA12E4878
:1003E00003F03EFC002001210346F022CDE900107D
:1003F0002AA12C4803F034FC002001210346F022FE
:10040000CDE9001028A12B4803F02AFC002001218F
:100410000346F022CDE9001027A12B4803F020FC71
:10042000002002210346F022CDE9001027A12C482C
:1004300003F016FC002003210346F022CDE9001052
:1004400028A12B4803F00CFC04F09CFA00BFFEE747
:100450001C00002018000020005002404C696D690B
:100460007453776974636865735461736B0000003B
:10047000E90900004A616D50726F74656374696FB9
:100480006E5461736B0000003B0A00004C6F636B9D
:1004900050425461736B0000690A0000506173732D
:1004A00050420000A30A000044726976657250420F
:1004B00000000000ED0A0000447269766572415543
:1004C000544F5042000000003B0B000050726F631D
:1004D000657373696E67496E7075745461736B00F0
:1004E000F10500004D6F76696E675461736B000013
:1004F0002D0900003C4880473C480047FEE7FEE7E6
:10050000FEE7FEE7FEE7FEE7FEE7FEE7FEE7FEE7C3
:10051000FEE7FEE7FEE7FEE7FEE7FEE7FEE7FEE7B3
:10052000FEE7FEE7FEE7FEE7FEE7FEE7FEE7FEE7A3
:10053000FEE7FEE7FEE7FEE7FEE7FEE7FEE7FEE793
:10054000FEE7FEE7FEE7FEE7FEE7FEE7FEE7FEE783
:10055000FEE7FEE7FEE7FEE7FEE7FEE7FEE7FEE773
:10056000FEE7FEE7FEE7FEE7FEE7FEE7FEE7FEE763
:10057000FEE7FEE7FEE7FEE7FEE7FEE7FEE7FEE753
:10058000FEE7FEE7FEE7FEE7FEE7FEE7FEE7FEE743
:10059000FEE7FEE7FEE7FEE7FEE7FEE7FEE7FEE733
:1005A000FEE7FEE7FEE7FEE7FEE7FEE7FEE7FEE723
:1005B000FEE7FEE7FEE7FEE7FEE7FEE7FEE7FEE713
:1005C000FEE7FEE7FEE7FEE7FEE7FEE7FEE7FEE703
:1005D000FEE7FEE7FEE7FEE7FEE7FEE7FEE7FEE7F3
:1005E000FEE7FEE7FEE70000710300006D02000079
:1005F00008B500BF64226946BF48006802F001FFE9
:100600009DF80000012805D1BC4908700020BC49B4
:10061000087000909DF80000022806D10120B94919
:1006200008700020B849087000909DF80000032869
:1006300008D10120B54908700020B1490870B249BD
:10064000087000909DF80000042804D10120B049F2
:100650000870002000909DF800000B2802D10020B7
:10066000AB4908709DF80000052808D10120A94970
:1006700008700020A2490870A349087000909DF8F6
:100680000000062808D10120A349087000209C49D9
:1006900008709D49087000909DF80000072808D157
:1006A00001209E49087000209549087096490870FD
:1006B00000909DF80000082808D101209849087092
:1006C00000208F4908709049087000909DF8000044
:1006D00009280DD18C48007818B901208849087084
:1006E00002E00020864908700020874908700090C9
:1006F0009DF800000A280DD18148007818B9012022
:100700008149087002E000207F49087000207C4980
:10071000087000907E480078012804D100207E49AE
:1007200008707C49087079480078012830D1002091
:1007300078490870784908707849087078490870D5
:100740006F490870704908706C4908706D490870ED
:10075000744908721420486000231A4672480068E1
:1007600002F07FFA01206F490872022008704FF4EE
:10077000FA70486000231A466B48006802F071FA6C
:1007800000206849087203200870002048609CE03F
:100790005A48007801280DD10020594908705F4956
:1007A00008705C4908705F490872032008700020D7
:1007B00048608AE05348007801280DD10020524952
:1007C0000870574908705449087056490872032048
:1007D00008700020486078E049480078012813D16B
:1007E0000020494908704E49087001204B490870A3
:1007F000002049490870474908700120494908729A
:1008000008700020486060E03F480078012810D15F
:10081000002042490870404908703E490870012094
:100820003F4908703F490872022008700020486064
:100830004BE03A48007801280DD100203849087073
:10084000344908703449087001203649087208702C
:100850000020486039E03248007801280CD100209F
:100860002C4908702C49087001202E49087202207A
:1008700008700020486028E02648007801280DD143
:1008800023480078012809D000202349087001205E
:100890002449087208700020486016E01E4800785D
:1008A00001280BD11A480078012807D001201D49E2
:1008B0000872022008700020486006E000201949F4
:1008C0000872032008700020486000201149087059
:1008D00011490870114908701149087007490870DA
:1008E000084908700949087000231A460D490E4846
:1008F000006802F0B6F97DE61C000020140000201C
:10090000110000201500002012000020130000201C
:10091000100000200C0000200D0000200E00002020
:100920000F0000206C0600201800002000BF0A22E3
:100930002A492B48006802F064FD2848007A012803
:1009400038D12648007801280ED1042211462548C6
:1009500000F0CBFB00220821224800F0C6FB1F4913
:10096000486803F0AFFCE2E71C48007802280ED18B
:10097000082211461B4800F0B8FB00220421194848
:1009800000F0B3FB1549486803F09CFCCFE713481F
:1009900000780328CBD100220821124800F0A5FBE3
:1009A000002204210F4800F0A0FB0C49486803F026
:1009B00089FCBCE70948007A0028B8D10022082148
:1009C000084800F092FB00220421064800F08DFB4D
:1009D0000249486803F076FCA9E700009006002071
:1009E000180000200050024008B500BF0020009011
:1009F00010214FF0402000F072FB48B10120009020
:100A000000231A4669466048006802F02AF901E0AE
:100A10000020009020214FF0402000F060FB48B102
:100A20000220009000231A4669465748006802F0E9
:100A300018F9DBE700200090D8E708B500BF0020D8
:100A4000009040214FF0402000F049FB48B10320C6
:100A5000009000231A4669464B48006802F001F9ED
:100A6000EDE700200090EAE708B500BF0020009005
:100A70004021464800F033FB48B104200090002399
:100A80001A4669464048006802F0EBF8EEE70B2092
:100A9000009000231A4669463B48006802F0E1F8DE
:100AA000E4E708B500BF0020009004214FF040208B
:100AB00000F015FB40B10520009000231A4669465E
:100AC0003148006802F0CDF808214FF0402000F0D6
:100AD00006FB40B10620009000231A4669462A48CA
:100AE000006802F0BEF800200090DCE708B500BF07
:100AF000002000900821264800F0F1FA48B10720B4
:100B0000009000231A4669461F48006802F0A9F8C1
:100B100001E00020009010211D4800F0E0FA48B1EB
:100B20000820009000231A4669461748006802F022
:100B300098F8DDE700200090DAE708B500BF002054
:100B400000901021114800F0CAFA48B10920009025
:100B500000231A4669460C48006802F082F801E05A
:100B6000002000902021094800F0B9FA48B10A207D
:100B7000009000231A4669460348006802F071F8A5
:100B8000DDE700200090DAE71C0000200060004054
:100B90000050004010B52F4800F022FF2D48401CA7
:100BA00000F01EFF2B48801C00F01AFF2948C01CD3
:100BB00000F016FF2748001D00F012FF2548401DD9
:100BC00000F00EFF30214FF0402000F00BFB0A2315
:100BD000012230214FF0402000F0EDF80C211E489A
:100BE00000F00FFB0C214FF0402000F0FBFA0A232D
:100BF00001220C214FF0402000F0DDF818211748A9
:100C000000F0F0FA0A2301221821144800F0D3F86A
:100C10004021134800F0E6FA0A230122402110483F
:100C200000F0C9F840214FF0402000F0DBFA0A2321
:100C3000012240214FF0402000F0BDF8302108484B
:100C400000F0D0FA0A2301223021054800F0B3F861
:100C500010BD0000000800F00050024000500040AD
:100C60000060004030B50246F74B1824F748006892
:100C7000F74D2840F74DA84201D1F74B1B24002126
:100C800008E053F83100904203D103EBC100406803
:100C900030BD491CA142F4D30020F9E702F0010362
:100CA0001BB1D0F800340B4302E0D0F800348B4382
:100CB000C0F8003402F002031BB1D0F820340B431B
:100CC00002E0D0F820348B43C0F82034704730B5B0
:100CD000024601208840C1B2D2F80034D2F8204444
:100CE00003EA010008B1012000E0002004EA010548
:100CF0000DB1022500E00025284330BD02F00103BC
:100D00001BB1D0F808340B4302E0D0F808348B4311
:100D1000C0F8083402F002031BB1D0F804340B43CE
:100D200002E0D0F804348B43C0F8043402F004032A
:100D30001BB1D0F80C340B4302E0D0F80C348B43D9
:100D4000C0F80C3402F4803323B1D0F8383543F0C6
:100D5000010303E0D0F8383523F00103C0F838353B
:100D60007047F0B5024601208840C1B2D2F808347D
:100D7000D2F80444D2F80C64D2F8385503EA0100E2
:100D800008B1012000E0002004EA01070FB10227AA
:100D900000E00027384306EA01070FB1042700E00E
:100DA0000027384305F0010717B14FF4803700E002
:100DB00000273843F0BDF0B5A44D2D68A44E354052
:100DC000A64EB5421AD0002416E00125A5400D40DC
:100DD00085B1D0F8C45F67000326BE40B543C0F8B4
:100DE000C45FD0F8C45F6700C2F34116BE4035430C
:100DF000C0F8C45F651CECB2082CE6DB02F001050C
:100E00001DB1D0F800550D4302E0D0F800558D43D8
:100E1000C0F8005502F002051DB1D0F804550D438D
:100E200002E0D0F804558D43C0F8045502F00405E3
:100E30001DB1D0F808550D4302E0D0F808558D4398
:100E4000C0F8085502F008051DB1D0F818550D433B
:100E500002E0D0F818558D43C0F818557B4D2D6829
:100E60007B4E35407D4EB5420BD002F010051DB1D2
:100E7000D0F83C550D4302E0D0F83C558D43C0F806
:100E80003C5503F001051DB1D0F80C550D4302E0AF
:100E9000D0F80C558D43C0F80C5503F002051DB178
:100EA000D0F810550D4302E0D0F810558D43C0F82E
:100EB000105503F004051DB1D0F814550D4302E0A0
:100EC000D0F814558D43C0F8145503F008051DB132
:100ED000D0F81C550D4302E0D0F81C558D43C0F8E6
:100EE0001C555A4D2D685A4E35405C4EB54217D0B0
:100EF00003F400751DB1D0F844550D4302E0D0F85D
:100F000044558D43C0F8445503F440751DB1D0F8E5
:100F100040550D4302E0D0F840558D43C0F8405590
:100F20001BB9D0F828550D4302E0D0F828558D4361
:100F3000C0F82855F0BDF0B514461D4601268E4078
:100F4000F1B2D0F800650E400EB1012600E0002697
:100F50003246D0F804650E400EB1022600E00026AD
:100F60003243D0F808650E400EB1042600E000269A
:100F70003243D0F818650E400EB1082600E0002676
:100F80003243324E3668324F3E40344FBE420FD06D
:100F9000D0F83C650E400EB1102600E0002632432A
:100FA000D0F8C46F4F00FE4006F0030642EA461236
:100FB0002260D0F80C650E400EB1012600E000263C
:100FC0003346D0F810650E400EB1022600E0002630
:100FD0003343D0F814650E400EB1042600E000261D
:100FE0003343D0F81C650E400EB1082600E0002601
:100FF0003343164E3668164F3E40184FBE420CD053
:10100000D0F840650E4046B1D0F844650E400EB1B0
:10101000FE1401E04FF4807633432B60F0BDD0F82E
:1010200010240A43C0F810247047D0F810248A43D3
:10103000C0F810247047024611B1D2F81804704766
:10104000D2F81404FBE70000B469000000E00F4090
:101050000000FF7000000A10746A00000000051014
:10106000C0F81C14704770B504460D462046FFF7C3
:10107000F9FD06462946304600F024FA304600F0D5
:101080007DFA70BD70B504462046FFF7EBFD0546BE
:10109000284600F0AFFA284600F02EFA70BD2DE980
:1010A000F04107460C4615463846FFF7DBFD06467D
:1010B0003019294600F006FA301900F05FFABDE851
:1010C000F08170B506460C463046FFF7CBFD05466D
:1010D000281900F08FFA281900F00EFA70BD0246A8
:1010E000002000EB810010587047002303EB8103C0
:1010F000C250704730B504460D46002229462046AE
:10110000FFF7CCFD0023012229462046FFF753FEBE
:1011100030BD30B504460D46022229462046FFF771
:10112000BDFD0823662229462046FFF744FE30BD58
:1011300030B504460D46002229462046FFF7AEFD95
:101140000023012229462046FFF735FE30BD30B589
:1011500004460D46022229462046FFF79FFD08233C
:10116000012229462046FFF726FE30BD30B5044651
:101170000D46022229462046FFF790FD0823012252
:1011800029462046FFF717FE30BD30B504460D4610
:10119000022229462046FFF781FD082366222946C0
:1011A0002046FFF708FE30BD30B504460D4602224A
:1011B00029462046FFF772FD08236622294620466D
:1011C000FFF7F9FD30BD30B504460D460222294631
:1011D0002046FFF763FD0823662229462046FFF7D5
:1011E000EAFD30BD30B504460D46002229462046B2
:1011F000FFF754FD0823012229462046FFF7DBFDB7
:1012000030BD30B504460D4608230122294620464C
:10121000FFF7D1FD012229462046FFF73FFD30BDF3
:1012200030B504460D460923012229462046FFF722
:10123000C2FD012229462046FFF730FD30BD30B502
:1012400004460D46022229462046FFF727FD0823C3
:10125000012229462046FFF7AEFD30BD30B50446D9
:101260000D46022229462046FFF718FD09230122D8
:1012700029462046FFF79FFD30BD30B504460D4698
:10128000022229462046FFF709FD082301222946AC
:101290002046FFF790FD30BD30B504460D460222D2
:1012A00029462046FFF7FAFC0823662229462046F5
:1012B000FFF781FD30BD30B504460D4602222946B8
:1012C0002046FFF7EBFC0823012229462046FFF7C2
:1012D00072FD30BD30B504460D4602222946204637
:1012E000FFF7DCFC0823012229462046FFF763FDB7
:1012F00030BD30B504460D46022229462046FFF790
:10130000CDFC0A23012229462046FFF754FD30BDBB
:1013100030B504460D46022229462046FFF7BEFCA2
:101320000823012229462046FFF745FD30BD30B590
:1013300004460D46022229462046FFF7AFFC08234B
:10134000012229462046FFF736FD30BD30B5044660
:101350000D46022229462046FFF7A0FC0823012261
:1013600029462046FFF727FD30BD30B504460D461F
:10137000022229462046FFF791FC08230122294634
:101380002046FFF718FD30BD30B504460D4600225B
:1013900029462046FFF782FC0023012229462046E9
:1013A000FFF709FD30BD30B504460D46022229463F
:1013B0002046FFF773FC0823012229462046FFF749
:1013C000FAFC30BD30B504460D46002229462046C1
:1013D000FFF764FC4FF40273012229462046FFF711
:1013E000EAFC30BD30B504460D46002229462046B1
:1013F000FFF754FC4FF48473012229462046FFF77F
:10140000DAFC30BD0146D1F84805704710B50146F9
:10141000C1F307401F4BDB6E01248440234033B1EE
:10142000012303EB40031C4C54F8230003E043006A
:10143000194C54F82300C1F30722D0F82C350F249F
:101440009440A34301F00F0494402343C0F82C358B
:1014500010BDD0F834250A43C0F834257047D0F8C1
:1014600034258A43C0F834257047D0F830250A4324
:10147000C0F830257047D0F830258A43C0F83025B1
:101480007047064AC0F82025D0F824250A43C0F842
:101490002425704700E00F404C6B00004B434F4C3D
:1014A00000BFFEE710B5FEF7F2FE08B1012010BD47
:1014B0000020FCE710B5FEF7E3FE08B1012010BDE7
:1014C0000020FCE730B50246B64C2468B64DAC426D
:1014D0000ED0B44C2368002005E053F82040B24DF4
:1014E00045F82040401C9B28F7D3AF4CAD4D2C60F5
:1014F000AD4C44F8221030BDAC49AB4A42F8201044
:101500007047AB4951F82010AA4A1143A54A121D51
:1015100011607047A34A121D126802F4E0610020B6
:1015200006E0A34A52F820208A4200D102E0401C83
:101530000828F6D300BF704710B50A4683089E4CB2
:1015400054F8233019688307DC0EFF23A340994326
:101550008307DB0E02FA03F319438308964C54F811
:101560002330196010BD01468808934A52F82000C4
:1015700000688A07D20ED040C0B27047042808D154
:1015800088491C31096841F48031864A1C32116057
:101590002FE0052808D183491C31096841F4003146
:1015A000804A1C32116024E0062808D17D491C3194
:1015B000096841F480217B4A1C32116019E00F2830
:1015C00008D14FF0E021096941F002014FF0E0221B
:1015D00011610EE010280CD3A0F1100101F01F02E0
:1015E00001219140A0F110025209744B53F82220BE
:1015F00011607047042808D16A491C31096821F438
:101600008031684A1C3211602FE0052808D16549F5
:101610001C31096821F40031624A1C32116024E057
:10162000062808D15F491C31096821F480215D4AF0
:101630001C32116019E00F2808D14FF0E021096930
:1016400021F002014FF0E02211610EE010280CD3CE
:10165000A0F1100101F01F0201219140A0F1100240
:101660005209574B53F822201160704710B50146BC
:101670000020042905D14B4A1C32126802F4803044
:1016800028E0052905D1474A1C32126802F40030CF
:1016900020E0062905D1434A1C32126802F480205A
:1016A00018E00F2905D14FF0E022126902F0020084
:1016B00010E010290ED3A1F1100252093F4B53F84C
:1016C00022201268A1F1100303F01F040123A3409C
:1016D00002EA030010BD022808D13249091F096837
:1016E00041F000412F4A121F116024E00E2808D15A
:1016F0002C49091F096841F080512A4A121F1160C4
:1017000019E00F2808D12749091F096841F08061B5
:10171000244A121F11600EE010280CD3A0F1100112
:1017200001F01F0201219140A0F110025209254B46
:1017300053F82220116070470E2808D11949091F5B
:10174000096841F00061174A121F116019E00F2863
:1017500008D11449091F096841F00071114A121F8C
:1017600011600EE010280CD3A0F1100101F01F024F
:1017700001219140A0F110025209134B53F822208D
:101780001160704710B504462046FEF786FD10BD77
:1017900010B5FEF785FD10BDA0F110010B4A1160D8
:1017A0007047000008ED00E000040020A1140000D4
:1017B000DC6B00000000FA05FC6B0000986C000078
:1017C000AC6C0000C06C0000D46C000000EF00E0C6
:1017D000024600210AE0F74850F83100904204D355
:1017E000F44800EBC10040687047491C0629F2D359
:1017F0000020F9E7F0B50146DFF8BCC3DCF860C1B2
:10180000CCF38923DFF8B0C3DCF860C1CCF3090561
:10181000DFF8A4C3DCF864C1CCF3042C0CF101069E
:10182000DFF894C3DCF864C10CF01F0C0CF1010765
:10183000B1FBF7F15A09A3EB421401FB05F001FBE0
:1018400002FC00EB5C1001FB04FC00EB9C20B0FBF5
:10185000F6F0F0BDD8483C380068401C00027047E4
:10186000D5480068D5490840D549884206D1D248B4
:1018700080680004400900F500607047CE48403899
:10188000006880B2401CC002F7E7CB480068CB4933
:101890000840CC49884209D1C74840380068C0F3A5
:1018A00002400A30012101FA00F070474FF48060D5
:1018B000FBE70146C1F30720C34A104400F0704023
:1018C00040F00070C1F30722BF4B1A44C2F3130269
:1018D00040EA4210CAB240EA8200006808B1012022
:1018E00070470020FCE70146C1F30720B74A1044C7
:1018F00000F0704040F00070C1F30722B34B1A446F
:10190000C2F3130240EA4210CAB240EA8200006801
:1019100008B1012070470020FCE710B50121C0F399
:101920000722AB4B1A4402F0704242F00072C0F33F
:101930000723A74C2344C3F3130342EA4312C3B261
:1019400042EA8302116010BD10B50021C0F30722E6
:101950009F4B1A4402F0704242F00072C0F307231A
:101960009B4C2344C3F3130342EA4312C3B242EA3B
:101970008302116010BD18B50121C0F30722954BF9
:101980001A4402F0704242F00072C0F30723914CF7
:101990002344C3F3130342EA4312C3B242EA83026D
:1019A00011600021009102E00099491C009100990A
:1019B0001029F9D30021C0F30722864B1A4402F004
:1019C000704242F00072C0F30723824C2344C3F3F9
:1019D000130342EA4312C3B242EA8302116018BD04
:1019E00010B50121C0F307227B4B1A4402F070426C
:1019F00042F00072C0F30723774C2344C3F3130370
:101A000042EA4312C3B242EA8302116010BD10B52C
:101A10000021C0F30722704B1A4402F0704242F0DA
:101A20000072C0F307236C4C2344C3F3130342EA50
:101A30004312C3B242EA8302116010BD10B5012106
:101A4000C0F30722654B1A4402F0704242F0007264
:101A5000C0F30723614C2344C3F3130342EA431248
:101A6000C3B242EA8302116010BD10B50021C0F379
:101A700007225A4B1A4402F0704242F00072C0F33F
:101A80000723564C2344C3F3130342EA4312C3B261
:101A900042EA8302116010BD10B50121C0F3072294
:101AA0004F4B1A4402F0704242F00072C0F3072319
:101AB0004B4C2344C3F3130342EA4312C3B242EA3A
:101AC0008302116010BD10B50021C0F30722444B02
:101AD0001A4402F0704242F00072C0F30723404CF7
:101AE0002344C3F3130342EA4312C3B242EA83021C
:101AF000116010BD30490968304A1140304A9142A6
:101B00000ED130B12C49096E41F000612A4A1166AC
:101B100018E02949096E21F00061274A116611E099
:101B200040B12549B031096841F00051224AC2F85C
:101B3000B01007E02049B031096821F000511E4A79
:101B4000C2F8B010704710B5044621462C20FFF7AC
:101B5000B9FC2C20FFF712FD10BD10B52C20FFF7AB
:101B600049FD2C20FFF7C8FC10BD1349496D014306
:101B7000114A516570471049496D81430E4A5165BC
:101B800070470D4988657047014611B10A48806D5C
:101B900070470948006DFBE712490860704711481B
:101BA000006870470F490831086070470D480830D9
:101BB00000687047046F000000E00F400000FF70F5
:101BC0000000051000000A1000E30F4000EA0F407B
:101BD00000E90F4000E50F4000E60F4000E70F402E
:101BE00000E80F40B4E10F40FE4908607047FD492E
:101BF000091D08607047FC48FC49086000BFFEE70B
:101C000010B5FEF748FB10BD10B5F848001D006880
:101C100040F00400F549091D0860FEF73CFBF3485D
:101C2000001D006820F00400F049091D086010BD87
:101C3000EF48C06D7047EE49C96D8143EC4AD165EC
:101C40007047EB49C86770470146EA48084050B101
:101C500001F00040E34A383A1060E6488138084015
:101C6000E34AC2F85001DF483838016001F40070DF
:101C700088B100BFDB483438006800F440700028A9
:101C8000F8D0D8483438006800F44070B0F5807F50
:101C900001D0002070470120FCE7D2495031086094
:101CA0007047D0485030006870472DE9FE4F054618
:101CB0008A46CF480068D0490840D049884202D1BE
:101CC0000020BDE8FE8FC5F3841705F0380010280A
:101CD00005D1DFF82C93002600BF152748E005F05A
:101CE0003800302804D147F230594FF400163FE055
:101CF00005F03800382804D14FF400494FF480062D
:101D000036E005F0380078BB1A2F01DC092F01DA24
:101D10000020D6E7BB4850F827904FF4401646F015
:101D20004076B348C06F20F01C000190072F03DB02
:101D3000019840F010000190AD490198C8674FF438
:101D40000020009005E00098401E0090009800B927
:101D500005E0A748006D00F480700028F3D000BFB4
:101D6000009828B90020ACE7FFE74FF000090026F3
:101D700005F46050002874D105F0380028B105F052
:101D80003800102801D000209BE7C5F302600290C4
:101D90009D48FFF71DFD9649C03108609448D0F872
:101DA000B0009A4900EA010444F000449048B03081
:101DB0000460093F9649029851F820005044401EA3
:101DC000B0FBFAF88A48D0F8B00030438849B03107
:101DD0000860029800EBC00000EB40008D4901EB69
:101DE000C00007EB470100EB810040688049C1F863
:101DF00064017C4824380168A8F1010041EA002010
:101E00007B49C1F86401029800EBC00000EB400080
:101E1000804901EBC00007EB470150F821007149F0
:101E20002839096801F4000108436E49283908601F
:101E30004846FFF7DFFC4FEA500A5046FFF7C8FC60
:101E40006B49C1F8C0000846D0F8600100F40000FA
:101E500040B16748B030006840F08040C1F8B00041
:101E600008E02BE05F482838006840F40000604933
:101E7000C1F860014FF4004B08E05A482038006870
:101E800000F0010000B104E0ABF1010BBBF1000F69
:101E9000F3DC00BFBBF1000F0DD05548B030046833
:101EA00046F0010040F08050044344F000445048A4
:101EB000C0F8B0403CE04FF0000A39E05048FFF76E
:101EC00087FC4B49C03108604948D0F8600120F4D4
:101ED00000004749C1F860010846D0F8B0404E48BC
:101EE000044044F000444248B0300460BAF1000FAE
:101EF00002D14FF000080AE0B9FBFAF8B8F1000F80
:101F000001D0A8F1010808F10100B9FBF0FA504630
:101F1000FFF75EFC3649C03108603548D0F8B04064
:101F200046EA8820044344F000443148B03004605D
:101F30002F48B030006820F470002D49C1F8B0007F
:101F40005046BEE62DE9F04106462948046E056F6D
:101F500044F4006424F4800445F4006504660567D5
:101F600004F00100D8B106F00100C0B966F001002C
:101F700004404FF480701E498865084604664FF49B
:101F8000002702E07F1E07B905E01948006D00F444
:101F900080700028F6D000BF0FB9BDE8F08124F4AE
:101FA000FE6406F4FE6004431C4805401B49A13151
:101FB00006EA0100054306F0080045EAC0050C48A2
:101FC0000466056724F4005406F40050044325F425
:101FD000005506F40050054340200549886505F08A
:101FE00000401DE088E10F400400FA050CED00E020
:101FF00000E00F40000100800000FF7000000510AD
:102000000024F400E86C000040787D0100FC0FE043
:10201000346F0000546D0000FF0300EF8FFFFF7F5F
:1020200018B108460567046602E0D64804660567ED
:10203000D5480440C14306EA0100044325F0FC559D
:1020400006F0FC50054306F0804040B144F48004A3
:1020500025F48005CD4906EA0100054301E025F09D
:10206000804506F4006080B94FF4004706E0C84898
:10207000006800F0010000B102E07F1E002FF6D1E1
:1020800000BF24F4006425F40065BE4804660567BB
:102090001020FEF709F900BF7FE7F0B5B948036EDD
:1020A000026F02F0004010B102F0700001E003F096
:1020B0003000202811D003DC38B1102815D10AE0F7
:1020C00030280CD0702810D10CE0B248C3F384172C
:1020D00050F827100BE0B04909E0B04907E047F29B
:1020E000305104E04FF4004101E00020F0BD00BF9A
:1020F0004FF0FF3402F0004010B102F4006028B14C
:1021000002F0004098BB03F4006080BBA048083890
:1021100005689C48D0F8646106F01F00401CC6F3B7
:1021200004277F1C10FB07F04000B1FBF0F1C5F362
:1021300009004843C5F389274F4300EB972143F437
:1021400080039048006900F47040B0F5804F13D0D0
:1021500006DCB0F5005F0BD0B0F5405F12D109E0AE
:10216000B0F5E04F0AD0B0F5104F0BD108E00BE00E
:102170008B4C08E08B4C06E08B4C04E08B4C02E06F
:102180008B4C00E000BF00BF03F4800018B302F0E6
:102190000040D8B102F0804090B102F0004010B190
:1021A00002F4006028B102F0004048B903F4006076
:1021B00030B94F00C2F38650401CB7FBF0F10AE083
:1021C000C2F3C550401CB1FBF0F104E0C3F3C350AF
:1021D000401CB1FBF0F18C4200D22146084685E755
:1021E0006B4924390860704710B50246654B1B687F
:1021F000704C2340704CA34208D121F0FC54531E74
:1022000044EAC353624C243C236023E0501E01F097
:10221000700333B1102B0ED0302B05D0702B09D1A9
:1022200005E040F4401007E040F4001004E040F402
:10223000800001E000BF00BF00BF01F002030BB14E
:1022400040F0004001F080430BB140F08040504B23
:10225000243B186010BD4B49096E21F4F011014375
:10226000484A116670474748006E00F4801008B96C
:10227000002070474348006E00F4F010F9E7414930
:10228000C96E00F00F0301229A4011433D4AD16606
:1022900070473C49C96E00F00F0301229A409143F8
:1022A000384AD16670473748006F20F4804035497E
:1022B000086770473348006F40F480403149086731
:1022C00070473049886370472E48006E70472D492B
:1022D000096E01432B4A116670472DE9F04F054600
:1022E00028480068DFF8CCE000EA0E00DFF8C8E01C
:1022F000704503D100200860BDE8F08F2148B03060
:10230000076807F08050B0F1805F02D000200860BD
:10231000F2E7C5F384161F4850F826401C480838D9
:1023200002681848D0F86431C2F3090CC2F3892856
:1023300003F01F09C3F3042A04FB0CF004FB08FE9E
:1023400000EB9E2B09F101000AF1010E10FB0EF0CB
:10235000BBFBF0FBC1F800B00120CDE70948406E9F
:1023600070470849496E8143064A516670474A1EC4
:10237000D2B20243064B203B1A6070470449303901
:102380000860704700E00F40FEFF3FF8000040404B
:1023900068E10F40E86C00000024F40000093D00F3
:1023A00000B4C40480F0FA02005A620240787D0151
:1023B000002D31010000FF700000051000F1080140
:1023C00041604FF0FF31816000F10801C16001619F
:1023D00000210160704700210161704742684A6036
:1023E00093688B60936859609160086103685B1C17
:1023F0000360704710B502460B685C1C0CB910698D
:1024000007E002F1080000E04068446824689C424C
:10241000FAD944684C604C68A160886041600A61E8
:102420001468641C146010BD01460A69D1E90130CA
:102430009860D1E9010358605068884201D18868EA
:102440005060002008611068401E106010687047DE
:10245000FE480068401C08B9012000E0002050B987
:1024600000BFA02080F31188BFF34F8FBFF36F8FA1
:1024700000BF00BFFEE700BFA02080F31188BFF3BC
:102480004F8FBFF36F8F00BF00BFFEE7001F4FF0FD
:1024900080730360001F21F001030360001FEC4BF9
:1024A000036014380260001F6FF0020303602038DD
:1024B0007047E84800684FF47A71B0FBF1F0E649E4
:1024C0000860084600686FF07F41B1FBF0F0E34917
:1024D0000860E0480068B0FBF0F02D21B1FBF0F09F
:1024E000DF49086000204FF0E02108618861D94889
:1024F00000684FF47A71B0FBF1F0401E4FF0E0211C
:1025000048610720086170471CB5D6480068D64965
:10251000884201D0012000E0002050B900BFA02077
:1025200080F31188BFF34F8FBFF36F8F00BF00BFE1
:10253000FEE7CC480068CC49491E884201D0012002
:1025400000E0002050B900BFA02080F31188BFF345
:102550004F8FBFF36F8F00BF00BFFEE7C349084630
:1025600000780190FF200A4610700846007800901D
:102570009DF8000000F0E0009DF80020904201D19D
:10258000012000E0002050B900BFA02080F3118896
:10259000BFF34F8FBFF36F8F00BF00BFFEE79DF803
:1025A000000000F0A000B24A10700720B14A10608D
:1025B00009E0B0480068401EAE4A10609DF8000077
:1025C0004006000E00909DF8000000F0800080287A
:1025D000EFD0A8480068C0F10700032801D101200E
:1025E00000E0002050B900BFA02080F31188BFF3A5
:1025F0004F8FBFF36F8F00BF00BFFEE79D4800689D
:1026000000029C4A10601046008800F4E0601060F0
:10261000964A0198107093482030006840F460009A
:102620009049203108600846006840F0604008602A
:10263000FFF73FFF002085490860FDF75DFE8E48EB
:10264000006840F040408C490860FDF741FE0020E2
:102650001CBD7E480068B0F57A7F01D1012000E002
:10266000002050B900BFA02080F31188BFF34F8F26
:10267000BFF36F8F00BF00BFFEE7704700BFA02011
:1026800080F31188BFF34F8FBFF36F8F00BF6F4888
:102690000068401C6D49086008460068012813D195
:1026A0007048001D0068C0B208B9012000E0002099
:1026B00050B900BFA02080F31188BFF34F8FBFF344
:1026C0006F8F00BF00BFFEE770476048006850B9D9
:1026D00000BFA02080F31188BFF34F8FBFF36F8F2F
:1026E00000BF00BFFEE759480068401E5749086018
:1026F0000846006820B9002080F3118800BF00BFA1
:10270000704710B500BFA02080F31188BFF34F8F32
:10271000BFF36F8F00BF01F059FB20B14FF0805025
:102720005049091D086000BF002080F3118800BFD8
:1027300010BD2DE9F041044648480068844201D9A3
:10274000464804684FF0E020006920F001004FF097
:10275000E021086108468169601E3F4A126802FB59
:1027600000153F480068854202D93D4800682D1A8F
:1027700072B6BFF34F8FBFF36F8F02F0EAFD80B9DF
:102780004FF0E02080694FF0E02148610846006981
:1027900040F00100086130480068401E486162B6A0
:1027A0007EE04FF0E020456100204FF0E02188619D
:1027B0000846006940F001000861A046B8F1000F2A
:1027C00004D0BFF34F8F30BFBFF36F8F62B6BFF33C
:1027D0004F8FBFF36F8F72B6BFF34F8FBFF36F8F03
:1027E00006204FF0E02108610846006900F48030BF
:1027F000B8B119490968491E4FF0E0229269AA1A36
:10280000881A17490968884203D31349096888421E
:1028100002D911490968481E4FF0E0214861661E3F
:1028200012E00D48006860434FF0E0218969471AC3
:1028300009480068B7FBF0F6701C0749096848436F
:10284000C01B4FF0E0214861002017E02400002069
:102850005124000000000020280000202C0000204F
:102860003000002000ED00E071C20F4100E400E004
:10287000340000203800002034EF00E04FF0E02169
:1028800088610846006940F001000861304602F0A6
:1028900090FA1F480068401E4FF0E021486162B680
:1028A000BDE8F08170B5FDF75FFD0446102C16D32E
:1028B00004F1E02090F8F05316480078854201DBDF
:1028C000012000E0002050B900BFA02080F3118853
:1028D000BFF34F8FBFF36F8F00BF00BFFEE70E48FF
:1028E000006800F4E0600D490968884201D80120C1
:1028F00000E0002050B900BFA02080F31188BFF392
:102900004F8FBFF36F8F00BF00BFFEE770BD0000A9
:1029100028000020340000200CED00E038000020EA
:102920002DE9F04105460E4601272C4654B900BF5B
:10293000A02080F31188BFF34F8FBFF36F8F00BFCC
:1029400000BFFEE7002C42D0E06B00283FD04FF0E4
:10295000FF31E06BB1FBF0F0216C884237D3FFF719
:102960008DFED4E90F12206801FB0200A060002058
:10297000A06320686060E06B401E226C216800FB51
:102980000211E160FF2084F8440084F845009EB9FC
:10299000206908B9012000E00020A8B904F1100066
:1029A00002F04FFB80B14FF08050FA490860BFF34E
:1029B0004F8FBFF36F8F07E004F11000FFF7FEFCAD
:1029C00004F12400FFF7FAFCFFF77FFE00E0002788
:1029D0000FB1012000E0002050B900BFA02080F31B
:1029E0001188BFF34F8FBFF36F8F00BF00BFFEE7AB
:1029F0003846BDE8F0812DE9F04106460D46174600
:102A00009846069C0DB9246000E02760E6632564C3
:102A100001212046FFF784FF84F850800020A06445
:102A2000BDE8F0812DE9F84305460E46174600241F
:102A3000E5B1601EB0FBF5F0B04217D305FB06F020
:102A400010F1550F12D805FB06F808F1540003F0F9
:102A5000FAFD0446B4B1A14609F154093B464A4681
:102A6000314628460094FFF7C6FF0BE054B900BF7B
:102A7000A02080F31188BFF34F8FBFF36F8F00BF8B
:102A800000BFFEE72046BDE8F8832DE9F04104468B
:102A90000F4615464FF00008A66B206C48B9206819
:102AA00000282CD1A06802F028FD80460020A060FC
:102AB00025E07DB93946226C606803F003FF216C84
:102AC000606808446060D4E90101884217D3206837
:102AD000606014E03946226CE06803F0F3FE216C7C
:102AE000E068411AE1602168E068884203D2216C05
:102AF000A068411AE160022D01D106B1761E701C5A
:102B0000A0634046BDE8F081F1B50098846C0026D2
:102B100054B900BFA02080F31188BFF34F8FBFF3DB
:102B20006F8F00BF00BFFEE7A06BE16B884201D250
:102B3000012000E0002050B900BFA02080F31188E0
:102B4000BFF34F8FBFF36F8F00BF00BFFEE7A06BD7
:102B5000E16B88422CD294F9455000226946204608
:102B6000FFF793FF0646681C60B9606A08B9012048
:102B700000E00020D8B904F1240002F062FAB0B1FC
:102B8000012614E07F2D01D0012000E0002050B983
:102B900000BFA02080F31188BFF34F8FBFF36F8F6A
:102BA00000BF00BFFEE7681C40B284F8450000BFCC
:102BB0003046F8BD70B50446FFF760FD94F9455006
:102BC00019E0A06C30B12046FFF79EFF88B102F0FB
:102BD000B1FB0EE0606A08B9012000E0002038B9BE
:102BE00004F1240002F02DFA18B102F0A3FB00E07A
:102BF00003E0681E45B2002DE3DC00BFFF2084F82F
:102C00004500FFF762FDFFF739FD94F9445010E0ED
:102C1000206908B9012000E0002048B904F1100043
:102C200002F00FFA08B102F085FB681E45B200E021
:102C300001E0002DECDC00BFFF2084F84400FFF72A
:102C400044FD70BD70B50546FFF718FDA86BE96B34
:102C5000884201D1012400E00024FFF736FD204620
:102C600070BD2DE9FF4782B0064688461D464FF0ED
:102C70000009344654B900BFA02080F31188BFF387
:102C80004F8FBFF36F8F00BF00BFFEE7B8F1000F9B
:102C900001D1206C08B9012000E0002050B900BF2C
:102CA000A02080F31188BFF34F8FBFF36F8F00BF59
:102CB00000BFFEE7022D02D1E06B012801D1012007
:102CC00000E0002050B900BFA02080F31188BFF3BE
:102CD0004F8FBFF36F8F00BF00BFFEE702F078FB9E
:102CE00008B9049808B9012000E0002050B900BFDD
:102CF000A02080F31188BFF34F8FBFF36F8F00BF09
:102D000000BFFEE700BFFFF7B9FCA06BE16B884294
:102D100001D3022D40D1D4F838A02A46414620469E
:102D2000FFF7B3FE0746A06C88B1022D02D1BAF1BD
:102D3000000F29D12046FFF7E7FE28B34FF080505F
:102D400014490860BFF34F8FBFF36F8F1CE0606AB8
:102D500008B9012000E0002068B904F1240002F065
:102D600070F988B14FF080500A490860BFF34F8F67
:102D7000BFF36F8F08E03FB14FF080500549086006
:102D8000BFF34F8FBFF36F8FFFF79FFC012006B09B
:102D9000BDE8F08704ED00E0049818B9FFF795FC52
:102DA0000020F4E7B9F1000F04D1684602F06BFA95
:102DB0004FF00109FFF789FC01F0FCF9FFF75EFC19
:102DC00094F94400401C10B9002084F8440094F9A0
:102DD0004500401C10B9002084F84500FFF775FC41
:102DE00004A9684602F056FAF8B92046FFF72AFF10
:102DF000A8B104F11000049902F07AF82046FFF718
:102E0000D9FE01F0D5F800287FF47DAF4FF0805057
:102E1000FA490860BFF34F8FBFF36F8F73E7204607
:102E2000FFF7C8FE01F0C4F86DE72046FFF7C2FEC9
:102E300001F0BEF80020AAE710B5044654B1002006
:102E4000A06020600021E16000231A461946204658
:102E5000FFF707FF10BD2DE9F041044601260027CA
:102E6000224600210120FFF7DDFD05462846FFF739
:102E7000E3FF2846BDE8F08170B50446264654B904
:102E800000BFA02080F31188BFF34F8FBFF36F8F77
:102E900000BF00BFFEE7FFF7F1FB306808B9B56877
:102EA00000E00025FFF711FC284670BD014651B92E
:102EB00000BFA02282F31188BFF34F8FBFF36F8F43
:102EC00000BF00BFFEE70A680AB9886800E000207A
:102ED000704770B505462C4654B900BFA02080F35A
:102EE0001188BFF34F8FBFF36F8F00BF00BFFEE7A6
:102EF00002F06BFAA16888420CD1E068401EE060E5
:102F0000E06828B900231A4619462046FFF7A9FEB3
:102F1000012600E00026304670BD01464A6A22B113
:102F20000A6B1268C2F1050000E00020704770B51E
:102F30000546FFF7A3FBA86B08B9012400E00024B5
:102F4000FFF7C3FB204670BD2DE9F34182B0054673
:102F50004FF000082C46002654B900BFA02080F393
:102F60001188BFF34F8FBFF36F8F00BF00BFFEE725
:102F7000206C08B9012000E0002050B900BFA0205B
:102F800080F31188BFF34F8FBFF36F8F00BF00BF77
:102F9000FEE702F01DFA08B9039808B9012000E025
:102FA000002050B900BFA02080F31188BFF34F8FDD
:102FB000BFF36F8F00BF00BFFEE700BFFFF75EFBF0
:102FC000A76BFFB1781EA063206810B902F09BFBCD
:102FD000A060206908B9012000E0002060B904F178
:102FE000100002F02EF838B14FF08050834908608D
:102FF000BFF34F8FBFF36F8FFFF767FB012004B064
:10300000BDE8F081039898B90EB9012000E00020D6
:1030100050B900BFA02080F31188BFF34F8FBFF3DA
:103020006F8F00BF00BFFEE7FFF74FFB0020E6E712
:10303000B8F1000F04D1684602F025F94FF00108FD
:10304000FFF743FB01F0B6F8FFF718FB94F94400D3
:10305000401C10B9002084F8440094F94500401C3D
:1030600010B9002084F84500FFF72FFB03A968463C
:1030700002F010F940BB2046FFF759FFF0B120687D
:1030800038B9FFF7FBFAA06802F0C6F90646FFF769
:103090001CFB04F12400039901F02AFF2046FFF7EE
:1030A00089FD00F085FF002888D14FF080505349FA
:1030B0000860BFF34F8FBFF36F8F7FE72046FFF7A6
:1030C00079FD00F075FF79E72046FFF773FD00F00A
:1030D0006FFF2046FFF72BFF0028EED05EB1FFF711
:1030E000CDFA2046FFF719FF07463946A06802F0DF
:1030F00077FAFFF7EAFA002081E72DE9F04106466A
:103100000F46344654B900BFA02080F31188BFF3A6
:103110004F8FBFF36F8F00BF00BFFEE702F055F97E
:10312000A168884204D1E068401CE060012508E005
:1031300039462046FFF708FF054615B1E068401CF8
:10314000E0602846BDE8F08170B505460E460024D3
:1031500055B1AE4208D8022200212846FFF762FC92
:1031600004466CB1A6630BE054B900BFA02080F305
:103170001188BFF34F8FBFF36F8F00BF00BFFEE713
:10318000204670BD2DE9F84F80468B4615461E46F9
:10319000444654B900BFA02080F31188BFF34F8F7D
:1031A000BFF36F8F00BF00BFFEE7BBF1000F01D17F
:1031B000206C08B9012000E0002050B900BFA02019
:1031C00080F31188BFF34F8FBFF36F8F00BF00BF35
:1031D000FEE7022E02D1E06B012801D1012000E0C0
:1031E000002068B900BFA02080F31188BFF34F8F83
:1031F000BFF36F8F00BF00BFFEE7000004ED00E0EB
:10320000FFF750FB00BFA021EFF3118081F311887D
:10321000BFF34F8FBFF36F8F00BF0746A06BE16B0B
:10322000884201D3022E42D194F945A0A06B0090B0
:10323000324659462046FFF728FC0AF10100E0B962
:10324000A06C58B1022E01D1009868BB2046FFF750
:103250005BFC48B345B30120286025E0606A08B9EB
:10326000012000E00020F8B904F1240001F0E9FE9B
:10327000D0B1CDB10120286016E0BAF17F0F01D0A6
:10328000012000E0002050B900BFA02080F3118889
:10329000BFF34F8FBFF36F8F00BF00BFFEE70AF190
:1032A000010040B284F845004FF0010901E04FF001
:1032B000000900BF87F3118800BF4846BDE8F88FBA
:1032C0002DE9F04707460D463C4654B900BFA02003
:1032D00080F31188BFF34F8FBFF36F8F00BF00BF24
:1032E000FEE7206C08B9012000E0002050B900BFC3
:1032F000A02080F31188BFF34F8FBFF36F8F00BF03
:1033000000BFFEE7206808B9A06808B9012000E006
:10331000002050B900BFA02080F31188BFF34F8F69
:10332000BFF36F8F00BF00BFFEE7FFF7BBFA00BF20
:10333000A021EFF3118081F31188BFF34F8FBFF30A
:103340006F8F00BF0646D4F838A0E06B50453AD9DD
:1033500094F945900AF10100A06309F10100C0B998
:10336000A06C38B12046FFF7CFFB48B345B301202E
:10337000286025E0606A08B9012000E00020F8B963
:1033800004F1240001F05DFED0B1CDB10120286030
:1033900016E0B9F17F0F01D0012000E0002050B904
:1033A00000BFA02080F31188BFF34F8FBFF36F8F52
:1033B00000BF00BFFEE709F1010040B284F84500FC
:1033C0004FF0010801E04FF0000800BF86F31188BC
:1033D00000BF4046BDE8F08770B504460D46206C3E
:1033E00070B1216CE0680144E160D4E902108842C8
:1033F00001D32168E1602846226CE16803F062FA9B
:1034000070BD2DE9F74183B005460E464FF0000828
:103410002C4654B900BFA02080F31188BFF34F8F12
:10342000BFF36F8F00BF00BFFEE70EB9206C08B975
:10343000012000E0002050B900BFA02080F31188D7
:10344000BFF34F8FBFF36F8F00BF00BFFEE701F0E8
:10345000BFFF08B9059808B9012000E0002050B965
:1034600000BFA02080F31188BFF34F8FBFF36F8F91
:1034700000BF00BFFEE700BFFFF700F9A76BF7B181
:1034800031462046FFF7A8FF781EA063206908B9DF
:10349000012000E0002060B904F1100001F0D1FD2E
:1034A00038B14FF08050F9490860BFF34F8FBFF338
:1034B0006F8FFFF70AF9012006B0BDE8F08105988B
:1034C00018B9FFF702F90020F6E7B8F1000F04D1B0
:1034D00001A801F0D8FE4FF00108FFF7F6F800F060
:1034E00069FEFFF7CBF894F94400401C10B90020A6
:1034F00084F8440094F94500401C10B9002084F879
:103500004500FFF7E2F805A901A801F0C3FEF0B9F4
:103510002046FFF70CFDA0B104F12400059901F04D
:10352000E7FC2046FFF746FB00F042FD0028A3D150
:103530004FF08050D5490860BFF34F8FBFF36F8FB6
:103540009AE72046FFF736FB00F032FD94E720466D
:10355000FFF730FB00F02CFD2046FFF7E8FC0028C9
:103560008AD00020A8E72DE9F74382B005460E4631
:103570004FF000082C4654B900BFA02080F31188FA
:10358000BFF34F8FBFF36F8F00BF00BFFEE70EB9D1
:10359000206C08B9012000E0002050B900BFA02035
:1035A00080F31188BFF34F8FBFF36F8F00BF00BF51
:1035B000FEE701F00DFF08B9049808B9012000E00A
:1035C000002050B900BFA02080F31188BFF34F8FB7
:1035D000BFF36F8F00BF00BFFEE700BFFFF74EF8DD
:1035E000D4F83890B9F1000F1ED0E7683146204674
:1035F000FFF7F2FEE760606A08B9012000E00020F2
:1036000060B904F1240001F01CFD38B14FF0805086
:103610009E490860BFF34F8FBFF36F8FFFF755F8D8
:10362000012005B0BDE8F083049818B9FFF74DF804
:103630000020F6E7B8F1000F04D1684601F023FE40
:103640004FF00108FFF741F800F0B4FDFFF716F85E
:1036500094F94400401C10B9002084F8440094F907
:103660004500401C10B9002084F84500FFF72DF8F4
:1036700004A9684601F00EFEF0B92046FFF757FC9A
:10368000A0B104F12400049901F032FC2046FFF7B8
:1036900091FA00F08DFC0028A0D14FF080507B49BA
:1036A0000860BFF34F8FBFF36F8F97E72046FFF798
:1036B00081FA00F07DFC91E72046FFF77BFA00F0ED
:1036C00077FC2046FFF733FC002887D00020A8E7CE
:1036D0002DE9F05F06468A461746344654B900BFC6
:1036E000A02080F31188BFF34F8FBFF36F8F00BF0F
:1036F00000BFFEE7BAF1000F01D1206C08B901202C
:1037000000E0002050B900BFA02080F31188BFF373
:103710004F8FBFF36F8F00BF00BFFEE7FFF7C2F808
:1037200000BFA021EFF3118081F31188BFF34F8F09
:10373000BFF36F8F00BF0546D4F838B0BBF1000F60
:1037400034D094F9449051462046FFF745FEABF142
:103750000100A06309F1010070B9206908B90120D6
:1037600000E00020F8B904F1100001F06AFCD0B1CB
:10377000CFB10120386016E0B9F17F0F01D00120F0
:1037800000E0002050B900BFA02080F31188BFF3F3
:103790004F8FBFF36F8F00BF00BFFEE709F101003D
:1037A00040B284F844004FF0010801E04FF00008F7
:1037B00000BF85F3118800BF4046BDE8F09F2DE9AA
:1037C000F04706468846344654B900BFA02080F32F
:1037D0001188BFF34F8FBFF36F8F00BF00BFFEE7AD
:1037E000B8F1000F01D1206C08B9012000E00020E1
:1037F00050B900BFA02080F31188BFF34F8FBFF3F3
:103800006F8F00BF00BFFEE7206C08B1012000E011
:10381000002050B900BFA02080F31188BFF34F8F64
:10382000BFF36F8F00BF00BFFEE7FFF73BF800BF9D
:10383000A021EFF3118081F31188BFF34F8FBFF305
:103840006F8F00BF0546A06B48B1D4F80C9041467D
:103850002046FFF7C1FDC4F80C90012700E00027C7
:1038600000BF85F3118800BF3846BDE8F08770B50A
:1038700004466CB900BFA02080F31188BFF34F8FBE
:10388000BFF36F8F00BF00BFFEE7000004ED00E054
:10389000FEF7F4FEA56BFEF718FF284670BD70B565
:1038A0000446254655B900BFA02080F31188BFF318
:1038B0004F8FBFF36F8F00BF00BFFEE7FEF7DEFE46
:1038C000D5E90E10461AFEF700FF304670BD10B560
:1038D00001460A4652B900BFA02383F31188BFF303
:1038E0004F8FBFF36F8F00BF00BFFEE7906B10BD1F
:1038F00070B50446254655B900BFA02080F3118855
:10390000BFF34F8FBFF36F8F00BF00BFFEE72846A6
:1039100002F042FF70BD0146C86C7047C164704739
:10392000014691F85000704710B501460A4652B959
:1039300000BFA02383F31188BFF34F8FBFF36F8FB6
:1039400000BF00BFFEE7936B0BB9012000E0002031
:1039500010BD10B501460A4652B900BFA02383F33B
:103960001188BFF34F8FBFF36F8F00BF00BFFEE71B
:10397000936BD46BA34201D1012000E0002010BD65
:103980002DE9F04105460E4617462C46FEF776FE19
:1039900094F94400401C10B9002084F8440094F9C4
:1039A0004500401C10B9002084F84500FEF78DFE4C
:1039B000A06B28B93A46314604F1240001F012FB0D
:1039C0002046FFF7F7F8BDE8F08170B50446002205
:1039D00004212046FFF726F80546284670BD70B53D
:1039E00004460E46FEF74AFEA06C08B1002505E02D
:1039F000A06B08B1002501E0A6640125FEF765FE75
:103A0000284670BD2DE9F04105460F462E46B06CA4
:103A1000B84201D000240AE0B06B08B1002406E0EF
:103A2000FEF72CFE0020B064FEF74FFE0124204676
:103A3000BDE8F08138B505460C46002000902246CE
:103A400069462846FFF7DDFC009838BD38B50446C6
:103A500000200090002269462046FFF739FE0098BA
:103A600038BD000010B5002407E004EB8401F94ADA
:103A700002EB8100FEF7A2FC641C052CF5D3F6488E
:103A8000FEF79CFCF548FEF799FCF548FEF796FC1E
:103A9000F448FEF793FCF448FEF790FCEE48F34937
:103AA0000860EE48F249086010BD10B50446FEF704
:103AB000E5FDF0480068401CEE490860EE480068EB
:103AC00040B9ED4804600846006801280DD1FFF7B1
:103AD000C9FF0AE0E948006838B9E7480068C06AE9
:103AE000E16A884201D8E4480460E5480068401C67
:103AF000E349086008460068206400BF94F82C1071
:103B000001208840DF4909680843DE490860E16A0E
:103B100001EB8101CF4A02EB81014868A060826815
:103B2000E260211D826851608160E16A01EB8101E0
:103B3000C84A02EB81026261E16A01EB8101C54A78
:103B400052F82110491CE26A02EB8202C14B43F891
:103B5000221000BFFEF7B9FDC848006868B1C6482A
:103B60000068C06AE16A884207D24FF08050C649B7
:103B70000860BFF34F8FBFF36F8F10BD2DE9F05F6B
:103B800082460F4690469B460A9E0C9C4FEA88014F
:103B9000A522206B02F0A8FEA8F10100216B01EB29
:103BA000800929F0070909F0070008B9012000E0A1
:103BB000002050B900BFA02080F31188BFF34F8FC1
:103BC000BFF36F8F00BF00BFFEE787B1002507E09E
:103BD000795D04F134004155785D00B902E06D1C57
:103BE0000A2DF5D300BF00213D20015502E0002041
:103BF00084F83400052E01D2012000E0002050B9E5
:103C000000BFA02080F31188BFF34F8FBFF36F8FE9
:103C100000BF00BFFEE7052E00D30426E662A664BF
:103C20000020E064201DFEF7D6FB04F11800FEF72B
:103C3000D2FB2461C6F10500A0616462002020650A
:103C400084F8540084F855005A4651464846FEF719
:103C50001DFC20600B9808B10B980460BDE8F09F34
:103C60002DE9FF4F85B0804689461746DDE912AB46
:103C7000B80002F0E8FC064656B1582002F0E3FC1A
:103C800004460CB1266304E0304602F085FD00E0F6
:103C900000247CB10020CDE900ABCDE902403A46DA
:103CA00049464046089BFFF769FF2046FFF7FDFEA7
:103CB000012501E04FF0FF35284609B0BDE8F08F3F
:103CC00010B50446206B02F067FD204602F064FD4B
:103CD00010BD66480068006808B9012000E00020B7
:103CE00020B14FF0FF306949086005E05F48006887
:103CF000C068006865490860704770B50546FEF702
:103D0000BDFC15B95C48006800E028460446201D4B
:103D1000FEF78AFB78B9E06A00EB80004D4951F864
:103D2000200040B994F82C100120884055490968BA
:103D3000814354480160A06A18B104F11800FEF7ED
:103D400073FB4F480068401C4D4908604A480068B2
:103D5000844209D1211D4348FEF740FB4C480068CE
:103D6000401C4B49086006E042480068401E41493B
:103D70000860FFF7AEFFFEF7A8FC3F4800688442EA
:103D800002D02046FFF79CFF3C480068E8B13A4863
:103D90000068844219D13F48006808B9012000E05A
:103DA000002050B900BFA02080F31188BFF34F8FCF
:103DB000BFF36F8F00BF00BFFEE74FF08050324966
:103DC0000860BFF34F8FBFF36F8F70BD2DE9F041D7
:103DD0004FF000082F48006800287DD12E48006869
:103DE000451C2D48056015BB20480068006808B9CF
:103DF000012000E0002050B900BFA02080F311880E
:103E0000BFF34F8FBFF36F8F00BF00BFFEE71748B0
:103E100007681748006815490860154807601F487B
:103E20000068401C1D490860FFF753FF00BF17489A
:103E3000006885427ED300BF0C480068006808B95E
:103E4000012000E0002020B14FF0FF300F49086052
:103E500093E025E09C0600200007002014070020C6
:103E6000280700203C0700205007002040000020C9
:103E7000440000204C0000203C000020580000209E
:103E8000680000205400002004ED00E06C000020D9
:103E9000480000207800002050000020640000202E
:103EA000FA480068C068C4686668B54202D2F8483B
:103EB000066062E06069D4E902128A60D4E90221F6
:103EC0004A60211D42688A4201D1E16841600022B6
:103ED00062610168491E00E062E00160A06A98B179
:103EE000A06AD4E907128A60D4E907214A6004F184
:103EF000180142688A4201D1216A41600022A2620F
:103F00000168491E016000BF00BF94F82C10012019
:103F10008840E04909680843DE490860E16A01EB2E
:103F20008101DD4A02EB81014868A0608268E2609D
:103F3000211D00E022E0826851608160E16A01EBAE
:103F40008101D54A02EB81026261E16A01EB8101E4
:103F5000D14A52F82110491CE26A02EB8202CE4B90
:103F600043F8221000BFCD49E06A0968C96A884257
:103F7000FFF462AF4FF001085EE700BFC74800687A
:103F8000C06A00EB8000C44951F82000012801D923
:103F90004FF00108C248006808B14FF0010804E082
:103FA000C0480068401CBF4908604046BDE8F08139
:103FB00070B500240026BC48006850B900BFA0209E
:103FC00080F31188BFF34F8FBFF36F8F00BF00BF27
:103FD000FEE7FEF753FBB4480068401EB249086094
:103FE0000846006800287DD1B0480068002879D0D4
:103FF0005DE0AF48C068C468A06AD4E907128A606F
:10400000D4E907214A6004F1180142688A4201D1CB
:10401000216A41600022A2620168491E0160606954
:10402000D4E902128A60D4E902214A60211D426863
:104030008A4201D1E1684160002262610168491E43
:10404000016000BF94F82C10012088409149096854
:10405000084390490860E16A01EB81018E4A02EB56
:1040600081014868A0608268E260211D8268516019
:104070008160E16A01EB8101874A02EB81026261A2
:10408000E16A01EB8101844A52F82110491CE26A7D
:1040900002EB8202804B43F8221000BF7F49E06AA6
:1040A0000968C96A884202D301207D4908608048B6
:1040B000006808B9012000E00020002899D00CB168
:1040C000FFF707FE7748056875B100BFFFF77EFE72
:1040D00010B10120724908606D1E002DF6D100203C
:1040E000704900E00BE008606D48006838B10126B7
:1040F000300770490860BFF34F8FBFF36F8FFEF733
:10410000E4FA304670BD2DE9F04105460E466A4896
:10411000076800206149096881F855005F48006818
:10412000001DFEF781F950B95C48006890F82C102A
:104130000120884057490968814356480160681C3E
:10414000D8B9D6B15D49486854490968886053496F
:1041500082680968CA6051490968091D826851600E
:104160004E490968091D8160544A4C4909684A61F1
:1041700011460968491C11601AE07C19474800681B
:104180004460BC4207D245480168091D4C4800689C
:10419000FEF730F90CE041480168091D3B48006812
:1041A000FEF728F93A480068844201D23848046092
:1041B000BDE8F0813C480068401C3B4908607047FE
:1041C0002DE9F04704460F464FF0000954B900BFEF
:1041D000A02080F31188BFF34F8FBFF36F8F00BF14
:1041E00000BFFEE70FB1012000E0002050B900BF82
:1041F000A02080F31188BFF34F8FBFF36F8F00BFF4
:1042000000BFFEE72848006808B9012000E0002050
:1042100050B900BFA02080F31188BFF34F8FBFF3C8
:104220006F8F00BF00BFFEE7FFF7C4FF224806689C
:104230002068C5192068B04207D92068A8420BD968
:10424000B54209D94FF0010906E02068A84201D81B
:10425000B54201D94FF001092560B9F1000F03D033
:10426000A81B0021FFF74FFFFFF7A2FE8046B8F121
:10427000000F07D14FF080500E490860BFF34F8FF9
:10428000BFF36F8F4846BDE8F08700004000002074
:104290006C000020540000209C0600203C00002000
:1042A000600000205C000020780000204C0000200E
:1042B0002807002004ED00E05000002050070020F7
:1042C0004400002070B504460025D4B1F8480068C9
:1042D00008B9012000E0002050B900BFA02080F301
:1042E0001188BFF34F8FBFF36F8F00BF00BFFEE792
:1042F000FFF760FF00212046FFF705FFFFF758FE9C
:1043000005463DB94FF08050EA490860BFF34F8F32
:10431000BFF36F8F70BD2DE9F04707463E4656B993
:1043200000BFA02080F31188BFF34F8FBFF36F8FC2
:1043300000BF00BFFEE7E0480068864201D10024CC
:104340002DE0FEF79BF97569DC48D0F80080DC4869
:10435000D0F80090FEF7B9F9454501D04D4501D19F
:1043600002241CE0D748854212D1B06A70B90324F8
:10437000002007E006F15401095C012901D1022463
:1043800002E0401C0128F5DB00BF08E0022406E043
:10439000CD48854200D00DB9042400E00124204618
:1043A000BDE8F08770B50446FEF768F914B9C24855
:1043B000006800E020460646F56AFEF786F92846C2
:1043C00070BD2DE9F0410546FEF76CFA00BFA02153
:1043D000EFF3118081F31188BFF34F8FBFF36F8F1D
:1043E00000BF044615B9B448006800E028460746F7
:1043F000FE6A00BF84F3118800BF3046BDE8F0813B
:104400002DE9F04780460D464FF00009052D01D2F9
:10441000012000E0002050B900BFA02080F31188E7
:10442000BFF34F8FBFF36F8F00BF00BFFEE7052DB7
:1044300000D30425FEF722F9B8F1000F02D19E48FF
:10444000006800E040460446A66CAE4271D0B5421A
:104450000BD99948006884420DD097480068C06A1B
:10446000A84208D84FF0010905E09348006884424B
:1044700001D14FF00109E76AE16AA06C884200D1DE
:10448000E562A564A06900F0004010B9C5F105001F
:10449000A06107EB87018D4A02EB810160698842C8
:1044A00001D1012000E00020B8B3201DFDF7BCFFC2
:1044B00030B90120B84086490968814384480160C9
:1044C00000BF94F82C1001208840814909680843F6
:1044D0007F490860E16A01EB81017C4A02EB8101BE
:1044E0004868A0608268E260211D82685160816036
:1044F000E16A01EB8101754A02EB81026261E16AC6
:1045000001EB8101714A52F82110491CE26A02EB69
:1045100082026E4B43F8221000BFB9F1000F07D0A2
:104520004FF0805063490860BFF34F8FBFF36F8F28
:1045300000BFFEF7CAF8BDE8F0875D48006818B113
:1045400001206449086032E0002062490860604848
:104550000068B0FA80F0C0F11F0101EB81005B4AF6
:1045600052F8200008B1012000E0002050B900BF3F
:10457000A02080F31188BFF34F8FBFF36F8F00BF70
:1045800000BFFEE701EB8102504B03EB8200426863
:104590005268426000F108024368934202D14268C7
:1045A000526842604268D268434B1A6000BF70474D
:1045B00070B50546FEF762F815B93F48006800E09F
:1045C00028460446201DFDF72FFF78B9E06A00EB6E
:1045D00080003E4951F8200040B994F82C10012089
:1045E00088403B490968814339480160A06A18B195
:1045F00004F11800FDF718FF211D3248FDF7EEFE0B
:10460000002009E004F15401095C012903D10022D2
:1046100004F154010A54401C0128F3DBFEF755F85D
:104620002D48006828B1FEF729F8FFF752FBFEF786
:104630004CF821480068844229D127480068D0B14D
:104640001B48006808B9012000E0002050B900BFF5
:10465000A02080F31188BFF34F8FBFF36F8F00BF8F
:1046600000BFFEE74FF0805012490860BFF34F8F44
:10467000BFF36F8F0BE01348006818490968884240
:1046800003D100200C49086001E0FFF756FF70BD20
:1046900010B502460020114612BB00BFA02383F3D1
:1046A0001188BFF34F8FBFF36F8F00BF00BFFEE7CE
:1046B0007800002004ED00E03C00002040000020D5
:1046C00044000020500700203C0700209C060020EA
:1046D0005400002060000020580000204C00002002
:1046E000FE4C4B69A34201D1012300E0002373B1CA
:1046F000FB4C8B6AA34201D1012300E0002333B9B4
:104700008B6A0BB9012300E0002303B1012010BD27
:1047100070B505462C4655B900BFA02080F311881E
:10472000BFF34F8FBFF36F8F00BF00BFFEE7ED48B1
:104730000068844247D0002C45D0FDF79FFF2046FB
:10474000FFF7A6FFE8B3201DFDF76EFE00BF94F84B
:104750002C1001208840E44909680843E2490860B8
:10476000E16A01EB8101E14A02EB81014868A06046
:104770008268E260211D826851608160E16A01EB1C
:104780008101DA4A02EB81026261E16A01EB810197
:10479000D64A52F82110491CE26A02EB8202D34B3E
:1047A00043F8221000BFCF49E06A0968C96A88420D
:1047B00007D34FF08050CE490860BFF34F8FBFF34F
:1047C0006F8FFDF782FF70BD2DE9F041064600278F
:1047D000344656B900BFA02080F31188BFF34F8F35
:1047E000BFF36F8F00BF00BFFEE7FEF75BF800BFAF
:1047F000A021EFF3118081F31188BFF34F8FBFF336
:104800006F8F00BF05462046FFF742FF002842D0C9
:10481000B8480068002839D1B249E06A0968C96A15
:10482000884203D301270120B3490860201DFDF70A
:10483000FBFD00BF94F82C1001208840AA490968AC
:104840000843A9490860E16A01EB8101A74A02EB2C
:1048500081014868A0608268E260211D8268516021
:104860008160E16A01EB8101A04A02EB8102626191
:10487000E16A01EB81019D4A52F82110491CE26A6C
:1048800002EB8202994B43F8221004E004F1180174
:104890009348FDF7A3FD00BF85F3118800BF38469C
:1048A000BDE8F081002101228F4B1B68012B00D94C
:1048B00001218C4A1268D26A0AB100200DE08B4AAD
:1048C0001268012A01D9002007E009B1002004E0A4
:1048D0008A4A12688A4B1B68D01A704710B516E0D6
:1048E000FDF7CCFE8748C068C468201DFDF79CFD1D
:1048F00085480068401E8449086084480068401E5E
:1049000082490860FDF7E1FE2046FFF7D9F97F48AC
:1049100000680028E4D110BD00BFFFF7DFFF734837
:104920000068012807D94FF0805071490860BFF333
:104930004F8FBFF36F8FFFF7B5FF0446022C20D3D4
:10494000FFF738FC6D4800686D490968884201D35B
:10495000012000E0002050B900BFA02080F31188A2
:10496000BFF34F8FBFF36F8F00BF00BFFEE7FFF7AE
:1049700099FF0446022C02D32046FDF7DAFEFFF72A
:1049800017FBCAE71CB5624800210B468022CDE91F
:10499000001060A16148FFF763F90446012C02D1C1
:1049A00001F01DFC0446012C15D100BFA02080F3AE
:1049B0001188BFF34F8FBFF36F8F00BF4FF0FF30F1
:1049C0004E49086001205649086000204C490860A3
:1049D000FDF79AFD10E0601C08B1012000E0002006
:1049E00050B900BFA02080F31188BFF34F8FBFF3F1
:1049F0006F8F00BF00BFFEE74A4800681CBD10B5BE
:104A000000BFA02080F31188BFF34F8FBFF36F8FDB
:104A100000BF002042490860FDF71BFE10BD384969
:104A20000868704770B5FDF73DFF002534480468FD
:104A3000204670BD344800687047014611B92948C6
:104A4000006800E00846024652B900BFA02080F38B
:104A50001188BFF34F8FBFF36F8F00BF00BFFEE71A
:104A600002F1340070472DE9F04302460D4600275D
:104A70001068002873D01046D0F80480D8F804805D
:104A8000C0F8048000F10808D0F80490C14505D1B1
:104A9000D0F80480D8F80480C0F80480D0F80480EE
:104AA000D8F80C6000BF1046D0F80480D8F8048015
:104AB000C0F8048000F10808D0F80490C14505D181
:104AC000D0F80480D8F80480C0F80480D0F80480BE
:104AD000D8F80C104FF0000C002337E050070020EE
:104AE000280700203C000020540000209C060020E5
:104AF00004ED00E078000020600000206C00002041
:104B0000500000203C0700204C00002048000020FE
:104B10007000002049444C45000000001949000085
:104B2000580000207400002001F13400C45CE85CEF
:104B3000A04202D04FF0010C03E014B90F464FF031
:104B4000010CBCF1000F00D002E05B1C0A2BEBD380
:104B500000BF0FB102E002E0B142A4D100BF38466D
:104B6000BDE8F08370B506460525304601F0CEFE5F
:104B70000A2801D2012000E0002050B900BFA02087
:104B800080F31188BFF34F8FBFF36F8F00BF00BF5B
:104B9000FEE7FFF70FFB00BF6D1E05EB8501FE4A28
:104BA00002EB81003146FFF75EFF044604B101E0ED
:104BB000002DF1D100BF2CB93146F8480068FFF74D
:104BC00052FF04462CB93146F5480068FFF74BFF09
:104BD000044624B93146F348FFF745FF044624B99B
:104BE0003146F148FFF73FFF0446FFF7E1F9204661
:104BF00070BD0246002101E0521C491C1078A52816
:104C0000FAD0890888B270472DE9F04107460C4672
:104C100090461E4617B9E548006800E0384605464C
:104C2000256005F134006060E86A2061286BE0616E
:104C3000286CA060A86C60610020A061052E12D0D5
:104C4000DA480068854202D1002020730FE0267305
:104C5000032E0CD1FFF7AEFAA86A08B10220207328
:104C6000FFF7A6F903E02846FFF755FB2073B8F1DC
:104C7000000F04D0286BFFF7BCFF208401E0002068
:104C80002084BDE8F0812DE9F04707460C469046A8
:104C90000026206848B3204641684968416000F119
:104CA000080142688A4202D141684968416041680E
:104CB000D1F80C9000BF204641684968416000F17E
:104CC000080142688A4202D14168496841604168EE
:104CD000CD6806EBC60007EB80014346012228465B
:104CE000FFF792FF761C4D45E5D13046BDE8F087D1
:104CF0002DE9F0410546884616460024FFF75AFA8A
:104D0000AB48006880453AD3052700BF7F1E07EBFC
:104D10008702A14B03EB820104EBC40205EB820086
:104D20000122FFF7B0FF0444002FEFD104EBC401D0
:104D300005EB8100022299490968FFF7A4FF0444AA
:104D400004EBC40105EB8100022295490968FFF7D5
:104D50009AFF044404EBC40105EB8100042292494C
:104D6000FFF791FF044404EBC40105EB810003222B
:104D70008C49FFF788FF04440EB100203060FFF734
:104D800017F92046BDE8F0818A48006808B1012083
:104D900000E0002050B900BFA02080F31188BFF3CD
:104DA0004F8FBFF36F8F00BF00BFFEE781480068E1
:104DB0007047814909680144804A1268914201D8CC
:104DC000012100E0002151B900BFA02181F3118829
:104DD000BFF34F8FBFF36F8F00BF00BFFEE7764971
:104DE00009680144744A1160704770B504467448FC
:104DF000006808B9012000E0002050B900BFA020E1
:104E000080F31188BFF34F8FBFF36F8F00BF00BFD8
:104E1000FEE7FFF7CFF96B48006820446949086056
:104E2000FFF7C6F80546284670BD70B505462C4606
:104E300054B900BFA02080F31188BFF34F8FBFF398
:104E40006F8F00BF00BFFEE7FFF7B4F92846FFF7FA
:104E500062FA022847D10126201DFDF7E5FAFDF789
:104E60000DFCA06A30B104F11800FDF7DDFA012055
:104E700084F85500FDF729FC00BF94F82C100120A0
:104E800088405149096808434F490860E16A01EBCD
:104E90008101414A02EB81014868A0608268E260BA
:104EA000211D826851608160E16A01EB81013A4A0B
:104EB00002EB81026261E16A01EB8101364A52F83C
:104EC0002110491CE26A02EB8202334B43F82210A4
:104ED00000BF3649E06A0968C96A884204D90120DE
:104EE0003A49086000E00026FFF762F8304670BDDE
:104EF00070B504460D4654B900BFA02080F3118858
:104F0000BFF34F8FBFF36F8F00BF00BFFEE727488F
:104F1000016818312046FDF76DFA01212846FFF798
:104F2000F2F870BD70B504460D46164654B900BF80
:104F3000A02080F31188BFF34F8FBFF36F8F00BFA6
:104F400000BFFEE71E48006808B1012000E0002015
:104F500050B900BFA02080F31188BFF34F8FBFF37B
:104F60006F8F00BF00BFFEE745F000400F490968A2
:104F7000886160680D490968C8610C4982680968E0
:104F80000A620A490968183182685160074909684C
:104F90001831816005491BE09C060020400000207C
:104FA00044000020500700203C0700203C00002067
:104FB0004C00002070000020500000206C000020F9
:104FC000780000205C0000205400002060000020D9
:104FD00009688C622168491C216001213046FFF775
:104FE00092F870BD70B504460E46154654B900BF20
:104FF000A02080F31188BFF34F8FBFF36F8F00BFE6
:1050000000BFFEE76068F7490968C861F549826832
:1050100009680A62F3490968183182685160F149E8
:10502000096818318160EF4909688C622168491C60
:1050300021600DB14FF0FF3629463046FFF763F887
:1050400070BD70B50646F068C46854B900BFA020B2
:1050500080F31188BFF34F8FBFF36F8F00BF00BF86
:10506000FEE7A06AD4E907128A60D4E907214A6002
:1050700004F1180142688A4201D1216A416000228C
:10508000A2620168491E0160D7480068002841D12A
:105090006069D4E902128A60D4E902214A60211DC4
:1050A00042688A4201D1E168416000226261016880
:1050B000491E016000BF94F82C1001208840CB49A4
:1050C00009680843C9490860E16A01EB8101C84ADF
:1050D00002EB81014868A0608268E260211D82685D
:1050E00051608160E16A01EB8101C14A02EB8102FA
:1050F0006261E16A01EB8101BD4A52F82110491C4D
:10510000E26A02EB8202BA4B43F8221000BFFEF7BC
:10511000E0FD10E0B7494868E0618268226204F16E
:105120001801826851608160B24AA2621146096822
:10513000491C116000BFAB49E06A0968C96A88422E
:1051400004D901250120AC49086000E0002528466B
:1051500070BD70B505460E46A348006808B1012031
:1051600000E0002050B900BFA02080F31188BFF3F9
:105170004F8FBFF36F8F00BF00BFFEE746F00040C8
:105180002860EC6854B900BFA02080F31188BFF3F9
:105190004F8FBFF36F8F00BF00BFFEE72869D5E9CF
:1051A00001219160D5E9011251604168A94201D104
:1051B000A9684160002129610168491E0160FEF76C
:1051C00088FD6069D4E902128A60D4E902214A604C
:1051D000211D42688A4201D1E1684160002262617A
:1051E0000168491E016000BF94F82C10012088401E
:1051F0007E49096808437D490860E16A01EB810145
:105200007B4A02EB81014868A0608268E260211D50
:10521000826851608160E16A01EB8101744A02EBAE
:1052200081026261E16A01EB8101714A52F8211049
:10523000491CE26A02EB82026D4B43F8221000BF68
:105240006849E06A0968C96A884202D901206A4946
:10525000086070BD10B5044654B900BFA02080F3AB
:105260001188BFF34F8FBFF36F8F00BF00BFFEE702
:10527000FDF704FA614800682060614800686060DA
:10528000FDF723FA10BD5D49096801605C490968B2
:105290004160704770B506460C4656B900BFA02065
:1052A00080F31188BFF34F8FBFF36F8F00BF00BF34
:1052B000FEE754B900BFA02080F31188BFF34F8FE1
:1052C000BFF36F8F00BF00BFFEE7FDF7D7F94C4873
:1052D00002687068131A4348006890F8550030B1AE
:1052E00000204049096881F8550001251EE020682A
:1052F000401C08B9002519E0404930680968884217
:1053000006D07068904203D80125002020600DE08F
:105310002068984207D92068C01A20603046FFF7FD
:10532000B2FF002502E0002020600125FDF7CDF945
:10533000284670BD0120304908607047014611B110
:105340000A46506C00E00020704708B102465164E4
:10535000704701210120274A12680AB1002011E09C
:10536000254A12680AB100200CE0264A12680AB1E8
:10537000002007E0244A1368244A1268521E934210
:1053800000D1022070472DE9F041044614B91548B8
:10539000006800E0204607463D6B2846FFF729FCE1
:1053A00006463046BDE8F0812DE9F041044614B9C7
:1053B0000C48006800E0204607463D6B2846FFF792
:1053C00018FC06463046BDE8F0810649086870477B
:1053D0000F49096809B901201DE003490968C9B9E5
:1053E000022018E03C00002078000020540000203B
:1053F0009C06002028070020600000206400002098
:10540000500000205C000020500700204C000020CD
:10541000580000200020704770B505462C46002635
:10542000002D68D0FE49E06A0968C96A88425BD2EB
:10543000A06900F0004028B9F9480068C06AC0F1CE
:105440000500A061E16A01EB8101F64A02EB8101EE
:105450006069884201D1012000E0002000283DD091
:10546000201DFCF7E1FF40B994F82C100120884082
:10547000ED4909688143EC480160E9480068C06A69
:10548000E06200BF94F82C1001208840E6490968CA
:105490000843E5490860E16A01EB8101E14A02EB5A
:1054A00081014868A0608268E260211D82685160C5
:1054B0008160E16A01EB8101DA4A02EB81026261FB
:1054C000E16A01EB8101D74A52F82110491CE26AD6
:1054D00002EB8202D34B43F8221003E0D04800686D
:1054E000C06AE062012606E0CD49A06C0968C96A7D
:1054F000884200D20126304670BD70B505462C4664
:105500000026002D6AD0C6480068844201D10120DF
:1055100000E0002050B900BFA02080F31188BFF345
:105520004F8FBFF36F8F00BF00BFFEE7E06C50B935
:1055300000BFA02080F31188BFF34F8FBFF36F8FA0
:1055400000BF00BFFEE7E06C401EE064A16CE06AB3
:10555000884243D0E06C002840D1201DFCF764FF56
:1055600040B994F82C1001208840AF490968814364
:10557000AD480160A06CE062E06AC0F10500A06186
:1055800000BF94F82C1001208840A74909680843FF
:10559000A5490860E16A01EB8101A24A02EB8101A1
:1055A0004868A0608268E260211D82685160816065
:1055B000E16A01EB81019B4A02EB81026261E16ACF
:1055C00001EB8101974A52F82110491CE26A02EB73
:1055D0008202944B43F8221000BF0126304670BD72
:1055E0002DE9F04706460F4634464FF00109002EDC
:1055F0007BD0E06C50B900BFA02080F31188BFF3CE
:105600004F8FBFF36F8F00BF00BFFEE7A06CB842A3
:1056100001D23D4600E0A56CE06AA84265D0E06C8E
:10562000012862D17E480068844201D0012000E058
:10563000002050B900BFA02080F31188BFF34F8F26
:10564000BFF36F8F00BF00BFFEE7D4F82C80E56288
:10565000A06900F0004010B9C5F10500A06108EB99
:105660008801704A02EB81016069884201D1012002
:1056700000E00020C8B3201DFCF7D6FE40B994F826
:105680002C10012088406849096881436648016000
:1056900000BF94F82C100120884063490968084332
:1056A00061490860E16A01EB81015E4A02EB810118
:1056B0004868A0608268E260211D82685160816054
:1056C000E16A01EB8101574A02EB81026261E16A02
:1056D00001EB8101534A52F82110491CE26A02EBA6
:1056E0008202504B43F8221000BFBDE8F0874C49BE
:1056F000096888694A490968C96AC1F10501484AC7
:105700001268916170474648006830B144490968A1
:1057100001F14C00C96C491C0160414800687047A8
:105720002DE9F04104460F4616460CB9012000E071
:10573000002050B900BFA02080F31188BFF34F8F25
:10574000BFF36F8F00BF00BFFEE7FCF797FF344841
:105750000068503050F8240080B9012130480068BA
:105760005430015556B13046FEF7CDFC4FF0805015
:105770002E490860BFF34F8FBFF36F8FFCF7A5FF73
:10578000FCF77CFF26480068503050F824506DB17B
:1057900037B1002122480068503040F8241005E05D
:1057A000681E1F490968503141F8240000211C4837
:1057B000006854300155FCF788FF2846BDE8F081A9
:1057C0002DE9F04704460F4690461D46DDF820902F
:1057D0000CB9012000E0002050B900BFA02080F3E8
:1057E0001188BFF34F8FBFF36F8F00BF00BFFEE77D
:1057F000FCF744FF0A4800685430005D022823D0BB
:1058000007490968503101EB84000168B943016020
:1058100001210348006854300155B9F1000F07E039
:105820003C0000209C0600205400002004ED00E015
:105830000AD04846FEF767FC4FF08050FE490860EA
:10584000BFF34F8FBFF36F8FFCF73FFFFCF716FFDF
:105850002DB1FA480068503050F824002860F7480D
:1058600000685430005D022801D0002609E0F349A9
:105870000968503101EB8400016821EA08010160E8
:1058800001260021ED48006854300155FCF71DFF4A
:105890003046BDE8F0872DE9F05F07460D46164615
:1058A0009846DDF828A04FF0010B0DB9012000E06B
:1058B000002050B900BFA02080F31188BFF34F8FA4
:1058C000BFF36F8F00BF00BFFEE757B900BFA02036
:1058D00080F31188BFF34F8FBFF36F8F00BF00BFFE
:1058E000FEE73C46FCF7CAFEBAF1000F05D004F112
:1058F000500050F82500CAF8000004F1540010F8D8
:10590000059002214155B8F1050F29D2DFE808F0D2
:1059100027030D171C0004F1500050F825003043F8
:1059200004F1500141F825002DE004F1500050F839
:105930002500401C04F1500141F8250023E004F14A
:10594000500040F825601EE0B9F1020F04D004F1C8
:10595000500040F8256001E04FF0000B13E012E02A
:10596000B748006808B9012000E0002050B900BF26
:10597000A02080F31188BFF34F8FBFF36F8F00BF5C
:1059800000BFFEE700BF00BFB9F1010F5FD1606942
:10599000D4E902128A60D4E902214A60211D4268DA
:1059A0008A4201D1E1684160002262610168491EBA
:1059B000016000BF94F82C1001208840A1490968BB
:1059C0000843A0490860E16A01EB81019E4A02EBAD
:1059D00081014868A0608268E260211D8268516090
:1059E0008160E16A01EB8101974A02EB8102626109
:1059F000E16A01EB8101944A52F82110491CE26AE4
:105A000002EB8202904B43F8221000BFA06A08B953
:105A1000012000E0002050B900BFA02080F31188D1
:105A2000BFF34F8FBFF36F8F00BF00BFFEE7FEF7DE
:105A300050F98249E06A0968C96A884207D94FF07B
:105A400080507D490860BFF34F8FBFF36F8FFCF725
:105A50003CFE5846BDE8F09F2DE9F84F80460D46C4
:105A600017469946DDF828B001200090B8F1000FE4
:105A70000AD100BFA02080F31188BFF34F8FBFF37E
:105A80006F8F00BF00BFFEE70DB9012000E00020CE
:105A900050B900BFA02080F31188BFF34F8FBFF330
:105AA0006F8F00BF00BFFEE7FCF7FCFE444600BF5F
:105AB000A021EFF3118081F31188BFF34F8FBFF363
:105AC0006F8F00BF0646BBF1000F05D004F15000F8
:105AD00050F82500CBF8000004F1540010F805A0A0
